{
  "_format": "hh-sol-artifact-1",
  "contractName": "Quiz",
  "sourceName": "contracts/Quiz.sol",
  "abi": [
    {
      "inputs": [],
      "name": "GetCurrentQuizQuestions",
      "outputs": [
        {
          "components": [
            {
              "internalType": "string",
              "name": "questionName",
              "type": "string"
            },
            {
              "internalType": "string",
              "name": "option1name",
              "type": "string"
            },
            {
              "internalType": "string",
              "name": "option2name",
              "type": "string"
            },
            {
              "internalType": "string",
              "name": "option3name",
              "type": "string"
            },
            {
              "internalType": "string",
              "name": "option4name",
              "type": "string"
            }
          ],
          "internalType": "struct Quiz.CurrentQuestion[]",
          "name": "",
          "type": "tuple[]"
        }
      ],
      "stateMutability": "view",
      "type": "function"
    },
    {
      "inputs": [
        {
          "internalType": "string[]",
          "name": "ansArr",
          "type": "string[]"
        },
        {
          "internalType": "string[]",
          "name": "optionArr",
          "type": "string[]"
        }
      ],
      "name": "calculateResult",
      "outputs": [
        {
          "internalType": "uint256",
          "name": "",
          "type": "uint256"
        }
      ],
      "stateMutability": "nonpayable",
      "type": "function"
    },
    {
      "inputs": [
        {
          "internalType": "string",
          "name": "_questionName",
          "type": "string"
        },
        {
          "internalType": "string",
          "name": "_option1name",
          "type": "string"
        },
        {
          "internalType": "string",
          "name": "_option2name",
          "type": "string"
        },
        {
          "internalType": "string",
          "name": "_option3name",
          "type": "string"
        },
        {
          "internalType": "string",
          "name": "_option4name",
          "type": "string"
        }
      ],
      "name": "createCurrentQuestion",
      "outputs": [],
      "stateMutability": "nonpayable",
      "type": "function"
    },
    {
      "inputs": [
        {
          "internalType": "uint256",
          "name": "i",
          "type": "uint256"
        }
      ],
      "name": "getQuestion",
      "outputs": [
        {
          "components": [
            {
              "internalType": "string",
              "name": "questionName",
              "type": "string"
            },
            {
              "internalType": "string",
              "name": "option1name",
              "type": "string"
            },
            {
              "internalType": "string",
              "name": "option2name",
              "type": "string"
            },
            {
              "internalType": "string",
              "name": "option3name",
              "type": "string"
            },
            {
              "internalType": "string",
              "name": "option4name",
              "type": "string"
            }
          ],
          "internalType": "struct Quiz.CurrentQuestion",
          "name": "",
          "type": "tuple"
        }
      ],
      "stateMutability": "view",
      "type": "function"
    },
    {
      "inputs": [],
      "name": "getScore",
      "outputs": [
        {
          "internalType": "uint256",
          "name": "",
          "type": "uint256"
        }
      ],
      "stateMutability": "view",
      "type": "function"
    },
    {
      "inputs": [
        {
          "internalType": "uint256",
          "name": "",
          "type": "uint256"
        }
      ],
      "name": "questions",
      "outputs": [
        {
          "internalType": "string",
          "name": "questionName",
          "type": "string"
        },
        {
          "internalType": "string",
          "name": "option1name",
          "type": "string"
        },
        {
          "internalType": "string",
          "name": "option2name",
          "type": "string"
        },
        {
          "internalType": "string",
          "name": "option3name",
          "type": "string"
        },
        {
          "internalType": "string",
          "name": "option4name",
          "type": "string"
        }
      ],
      "stateMutability": "view",
      "type": "function"
    },
    {
      "inputs": [],
      "name": "score",
      "outputs": [
        {
          "internalType": "uint256",
          "name": "",
          "type": "uint256"
        }
      ],
      "stateMutability": "view",
      "type": "function"
    }
  ],
  "bytecode": "0x608060405234801561001057600080fd5b50611b3c806100206000396000f3fe608060405234801561001057600080fd5b506004361061007d5760003560e01c8063ae0f8e921161005b578063ae0f8e9214610104578063afd8206714610120578063db88176f1461013e578063efedc6691461016e5761007d565b806331b1b9781461008257806344800638146100b65780638e85692f146100d4575b600080fd5b61009c60048036038101906100979190610e8d565b61018c565b6040516100ad959493929190610f4a565b60405180910390f35b6100be61047a565b6040516100cb919061115e565b60405180910390f35b6100ee60048036038101906100e9919061139b565b6107b3565b6040516100fb9190611422565b60405180910390f35b61011e60048036038101906101199190611498565b6108cd565b005b610128610aef565b6040516101359190611422565b60405180910390f35b61015860048036038101906101539190610e8d565b610af8565b6040516101659190611647565b60405180910390f35b610176610e0e565b6040516101839190611422565b60405180910390f35b6001818154811061019c57600080fd5b90600052602060002090600502016000915090508060000180546101bf90611698565b80601f01602080910402602001604051908101604052809291908181526020018280546101eb90611698565b80156102385780601f1061020d57610100808354040283529160200191610238565b820191906000526020600020905b81548152906001019060200180831161021b57829003601f168201915b50505050509080600101805461024d90611698565b80601f016020809104026020016040519081016040528092919081815260200182805461027990611698565b80156102c65780601f1061029b576101008083540402835291602001916102c6565b820191906000526020600020905b8154815290600101906020018083116102a957829003601f168201915b5050505050908060020180546102db90611698565b80601f016020809104026020016040519081016040528092919081815260200182805461030790611698565b80156103545780601f1061032957610100808354040283529160200191610354565b820191906000526020600020905b81548152906001019060200180831161033757829003601f168201915b50505050509080600301805461036990611698565b80601f016020809104026020016040519081016040528092919081815260200182805461039590611698565b80156103e25780601f106103b7576101008083540402835291602001916103e2565b820191906000526020600020905b8154815290600101906020018083116103c557829003601f168201915b5050505050908060040180546103f790611698565b80601f016020809104026020016040519081016040528092919081815260200182805461042390611698565b80156104705780601f1061044557610100808354040283529160200191610470565b820191906000526020600020905b81548152906001019060200180831161045357829003601f168201915b5050505050905085565b60606001805480602002602001604051908101604052809291908181526020016000905b828210156107aa57838290600052602060002090600502016040518060a00160405290816000820180546104d190611698565b80601f01602080910402602001604051908101604052809291908181526020018280546104fd90611698565b801561054a5780601f1061051f5761010080835404028352916020019161054a565b820191906000526020600020905b81548152906001019060200180831161052d57829003601f168201915b5050505050815260200160018201805461056390611698565b80601f016020809104026020016040519081016040528092919081815260200182805461058f90611698565b80156105dc5780601f106105b1576101008083540402835291602001916105dc565b820191906000526020600020905b8154815290600101906020018083116105bf57829003601f168201915b505050505081526020016002820180546105f590611698565b80601f016020809104026020016040519081016040528092919081815260200182805461062190611698565b801561066e5780601f106106435761010080835404028352916020019161066e565b820191906000526020600020905b81548152906001019060200180831161065157829003601f168201915b5050505050815260200160038201805461068790611698565b80601f01602080910402602001604051908101604052809291908181526020018280546106b390611698565b80156107005780601f106106d557610100808354040283529160200191610700565b820191906000526020600020905b8154815290600101906020018083116106e357829003601f168201915b5050505050815260200160048201805461071990611698565b80601f016020809104026020016040519081016040528092919081815260200182805461074590611698565b80156107925780601f1061076757610100808354040283529160200191610792565b820191906000526020600020905b81548152906001019060200180831161077557829003601f168201915b5050505050815250508152602001906001019061049e565b50505050905090565b6000806000819055508151835114610800576040517f08c379a00000000000000000000000000000000000000000000000000000000081526004016107f79061173b565b60405180910390fd5b60005b83518110156108c15782818151811061081f5761081e61175b565b5b602002602001015160405160200161083791906117c6565b604051602081830303815290604052805190602001208482815181106108605761085f61175b565b5b602002602001015160405160200161087891906117c6565b60405160208183030381529060405280519060200120036108ad5760016000546108a2919061180c565b6000819055506108ae565b5b80806108b990611840565b915050610803565b50600054905092915050565b60016040518060a001604052808c8c8080601f016020809104026020016040519081016040528093929190818152602001838380828437600081840152601f19601f8201169050808301925050505050505081526020018a8a8080601f016020809104026020016040519081016040528093929190818152602001838380828437600081840152601f19601f82011690508083019250505050505050815260200188888080601f016020809104026020016040519081016040528093929190818152602001838380828437600081840152601f19601f82011690508083019250505050505050815260200186868080601f016020809104026020016040519081016040528093929190818152602001838380828437600081840152601f19601f82011690508083019250505050505050815260200184848080601f016020809104026020016040519081016040528093929190818152602001838380828437600081840152601f19601f8201169050808301925050505050505081525090806001815401808255809150506001900390600052602060002090600502016000909190919091506000820151816000019081610a889190611a34565b506020820151816001019081610a9e9190611a34565b506040820151816002019081610ab49190611a34565b506060820151816003019081610aca9190611a34565b506080820151816004019081610ae09190611a34565b50505050505050505050505050565b60008054905090565b610b00610e14565b60018281548110610b1457610b1361175b565b5b90600052602060002090600502016040518060a0016040529081600082018054610b3d90611698565b80601f0160208091040260200160405190810160405280929190818152602001828054610b6990611698565b8015610bb65780601f10610b8b57610100808354040283529160200191610bb6565b820191906000526020600020905b815481529060010190602001808311610b9957829003601f168201915b50505050508152602001600182018054610bcf90611698565b80601f0160208091040260200160405190810160405280929190818152602001828054610bfb90611698565b8015610c485780601f10610c1d57610100808354040283529160200191610c48565b820191906000526020600020905b815481529060010190602001808311610c2b57829003601f168201915b50505050508152602001600282018054610c6190611698565b80601f0160208091040260200160405190810160405280929190818152602001828054610c8d90611698565b8015610cda5780601f10610caf57610100808354040283529160200191610cda565b820191906000526020600020905b815481529060010190602001808311610cbd57829003601f168201915b50505050508152602001600382018054610cf390611698565b80601f0160208091040260200160405190810160405280929190818152602001828054610d1f90611698565b8015610d6c5780601f10610d4157610100808354040283529160200191610d6c565b820191906000526020600020905b815481529060010190602001808311610d4f57829003601f168201915b50505050508152602001600482018054610d8590611698565b80601f0160208091040260200160405190810160405280929190818152602001828054610db190611698565b8015610dfe5780601f10610dd357610100808354040283529160200191610dfe565b820191906000526020600020905b815481529060010190602001808311610de157829003601f168201915b5050505050815250509050919050565b60005481565b6040518060a0016040528060608152602001606081526020016060815260200160608152602001606081525090565b6000604051905090565b600080fd5b600080fd5b6000819050919050565b610e6a81610e57565b8114610e7557600080fd5b50565b600081359050610e8781610e61565b92915050565b600060208284031215610ea357610ea2610e4d565b5b6000610eb184828501610e78565b91505092915050565b600081519050919050565b600082825260208201905092915050565b60005b83811015610ef4578082015181840152602081019050610ed9565b60008484015250505050565b6000601f19601f8301169050919050565b6000610f1c82610eba565b610f268185610ec5565b9350610f36818560208601610ed6565b610f3f81610f00565b840191505092915050565b600060a0820190508181036000830152610f648188610f11565b90508181036020830152610f788187610f11565b90508181036040830152610f8c8186610f11565b90508181036060830152610fa08185610f11565b90508181036080830152610fb48184610f11565b90509695505050505050565b600081519050919050565b600082825260208201905092915050565b6000819050602082019050919050565b600082825260208201905092915050565b600061100882610eba565b6110128185610fec565b9350611022818560208601610ed6565b61102b81610f00565b840191505092915050565b600060a08301600083015184820360008601526110538282610ffd565b9150506020830151848203602086015261106d8282610ffd565b915050604083015184820360408601526110878282610ffd565b915050606083015184820360608601526110a18282610ffd565b915050608083015184820360808601526110bb8282610ffd565b9150508091505092915050565b60006110d48383611036565b905092915050565b6000602082019050919050565b60006110f482610fc0565b6110fe8185610fcb565b93508360208202850161111085610fdc565b8060005b8581101561114c578484038952815161112d85826110c8565b9450611138836110dc565b925060208a01995050600181019050611114565b50829750879550505050505092915050565b6000602082019050818103600083015261117881846110e9565b905092915050565b600080fd5b7f4e487b7100000000000000000000000000000000000000000000000000000000600052604160045260246000fd5b6111bd82610f00565b810181811067ffffffffffffffff821117156111dc576111db611185565b5b80604052505050565b60006111ef610e43565b90506111fb82826111b4565b919050565b600067ffffffffffffffff82111561121b5761121a611185565b5b602082029050602081019050919050565b600080fd5b600080fd5b600067ffffffffffffffff82111561125157611250611185565b5b61125a82610f00565b9050602081019050919050565b82818337600083830152505050565b600061128961128484611236565b6111e5565b9050828152602081018484840111156112a5576112a4611231565b5b6112b0848285611267565b509392505050565b600082601f8301126112cd576112cc611180565b5b81356112dd848260208601611276565b91505092915050565b60006112f96112f484611200565b6111e5565b9050808382526020820190506020840283018581111561131c5761131b61122c565b5b835b8181101561136357803567ffffffffffffffff81111561134157611340611180565b5b80860161134e89826112b8565b8552602085019450505060208101905061131e565b5050509392505050565b600082601f83011261138257611381611180565b5b81356113928482602086016112e6565b91505092915050565b600080604083850312156113b2576113b1610e4d565b5b600083013567ffffffffffffffff8111156113d0576113cf610e52565b5b6113dc8582860161136d565b925050602083013567ffffffffffffffff8111156113fd576113fc610e52565b5b6114098582860161136d565b9150509250929050565b61141c81610e57565b82525050565b60006020820190506114376000830184611413565b92915050565b600080fd5b60008083601f84011261145857611457611180565b5b8235905067ffffffffffffffff8111156114755761147461143d565b5b6020830191508360018202830111156114915761149061122c565b5b9250929050565b60008060008060008060008060008060a08b8d0312156114bb576114ba610e4d565b5b60008b013567ffffffffffffffff8111156114d9576114d8610e52565b5b6114e58d828e01611442565b9a509a505060208b013567ffffffffffffffff81111561150857611507610e52565b5b6115148d828e01611442565b985098505060408b013567ffffffffffffffff81111561153757611536610e52565b5b6115438d828e01611442565b965096505060608b013567ffffffffffffffff81111561156657611565610e52565b5b6115728d828e01611442565b945094505060808b013567ffffffffffffffff81111561159557611594610e52565b5b6115a18d828e01611442565b92509250509295989b9194979a5092959850565b600060a08301600083015184820360008601526115d28282610ffd565b915050602083015184820360208601526115ec8282610ffd565b915050604083015184820360408601526116068282610ffd565b915050606083015184820360608601526116208282610ffd565b9150506080830151848203608086015261163a8282610ffd565b9150508091505092915050565b6000602082019050818103600083015261166181846115b5565b905092915050565b7f4e487b7100000000000000000000000000000000000000000000000000000000600052602260045260246000fd5b600060028204905060018216806116b057607f821691505b6020821081036116c3576116c2611669565b5b50919050565b7f536f6d657468696e672077656e742077726f6e672120436f6e7461637420446560008201527f76656c6f70657221000000000000000000000000000000000000000000000000602082015250565b6000611725602883610ec5565b9150611730826116c9565b604082019050919050565b6000602082019050818103600083015261175481611718565b9050919050565b7f4e487b7100000000000000000000000000000000000000000000000000000000600052603260045260246000fd5b600081905092915050565b60006117a082610eba565b6117aa818561178a565b93506117ba818560208601610ed6565b80840191505092915050565b60006117d28284611795565b915081905092915050565b7f4e487b7100000000000000000000000000000000000000000000000000000000600052601160045260246000fd5b600061181782610e57565b915061182283610e57565b925082820190508082111561183a576118396117dd565b5b92915050565b600061184b82610e57565b91507fffffffffffffffffffffffffffffffffffffffffffffffffffffffffffffffff820361187d5761187c6117dd565b5b600182019050919050565b60008190508160005260206000209050919050565b60006020601f8301049050919050565b600082821b905092915050565b6000600883026118ea7fffffffffffffffffffffffffffffffffffffffffffffffffffffffffffffffff826118ad565b6118f486836118ad565b95508019841693508086168417925050509392505050565b6000819050919050565b600061193161192c61192784610e57565b61190c565b610e57565b9050919050565b6000819050919050565b61194b83611916565b61195f61195782611938565b8484546118ba565b825550505050565b600090565b611974611967565b61197f818484611942565b505050565b5b818110156119a35761199860008261196c565b600181019050611985565b5050565b601f8211156119e8576119b981611888565b6119c28461189d565b810160208510156119d1578190505b6119e56119dd8561189d565b830182611984565b50505b505050565b600082821c905092915050565b6000611a0b600019846008026119ed565b1980831691505092915050565b6000611a2483836119fa565b9150826002028217905092915050565b611a3d82610eba565b67ffffffffffffffff811115611a5657611a55611185565b5b611a608254611698565b611a6b8282856119a7565b600060209050601f831160018114611a9e5760008415611a8c578287015190505b611a968582611a18565b865550611afe565b601f198416611aac86611888565b60005b82811015611ad457848901518255600182019150602085019450602081019050611aaf565b86831015611af15784890151611aed601f8916826119fa565b8355505b6001600288020188555050505b50505050505056fea2646970667358221220dc71a85747c8635ccab822d42ba23f11561cda5ef5dc6d12ab5aacb3e71d768f64736f6c63430008110033",
  "linkReferences": {},
  "deployedLinkReferences": {}
}